Component: ARM Compiler 5.06 update 6 (build 750) Tool: armlink [4d35ed]

==============================================================================

Section Cross References

    main.o(i.main) refers to system_stm32f10x.o(i.SystemInit) for SystemInit
    main.o(i.main) refers to usart.o(i.USART1_Configuration) for USART1_Configuration
    main.o(i.main) refers to usart.o(i.USART_NVIC_Configuration) for USART_NVIC_Configuration
    main.o(i.main) refers to adc.o(i.ADC_Configuration) for ADC_Configuration
    main.o(i.main) refers to printfa.o(i.__0printf) for __2printf
    main.o(i.main) refers to adc.o(i.Read_ADC_Data_10K) for Read_ADC_Data_10K
    main.o(i.main) refers to systick_delay.o(i.Delay_ms) for Delay_ms
    system_stm32f10x.o(i.SetSysClock) refers to system_stm32f10x.o(i.SetSysClockTo72) for SetSysClockTo72
    system_stm32f10x.o(i.SystemCoreClockUpdate) refers to system_stm32f10x.o(.data) for SystemCoreClock
    system_stm32f10x.o(i.SystemInit) refers to system_stm32f10x.o(i.SetSysClock) for SetSysClock
    systick_delay.o(i.Delay_ms) refers to systick_delay.o(.data) for SysTick_Delay
    systick_delay.o(i.Delay_us) refers to systick_delay.o(.data) for SysTick_Delay
    systick_delay.o(i.SysTick_Handler) refers to systick_delay.o(.data) for SysTick_Delay
    adc.o(i.ADC1_NVIC_Configuration) refers to misc.o(i.NVIC_PriorityGroupConfig) for NVIC_PriorityGroupConfig
    adc.o(i.ADC1_NVIC_Configuration) refers to misc.o(i.NVIC_Init) for NVIC_Init
    adc.o(i.ADC1_NVIC_Configuration) refers to stm32f10x_adc.o(i.ADC_ClearITPendingBit) for ADC_ClearITPendingBit
    adc.o(i.ADC_Configuration) refers to stm32f10x_rcc.o(i.RCC_APB2PeriphClockCmd) for RCC_APB2PeriphClockCmd
    adc.o(i.ADC_Configuration) refers to stm32f10x_gpio.o(i.GPIO_Init) for GPIO_Init
==============================================================================

Removing Unused input sections from the image.

    Removing system_stm32f10x.o(i.SystemCoreClockUpdate), (164 bytes).
    Removing system_stm32f10x.o(.data), (20 bytes).
    Removing systick_delay.o(i.Delay_us), (20 bytes).
    Removing adc.o(i.ADC1_NVIC_Configuration), (72 bytes).
    Removing usart.o(i.UART1_Send_Command), (48 bytes).
    Removing core_cm3.o(.emb_text), (32 bytes).
    Removing startup_stm32f10x_md.o(HEAP), (512 bytes).
    Removing stm32f10x_flash.o(i.FLASH_ClearFlag), (12 bytes).
    Removing stm32f10x_flash.o(i.FLASH_EnableWriteProtection), (196 bytes).
    Removing stm32f10x_flash.o(i.FLASH_EraseAllBank1Pages), (72 bytes).
    Removing stm32f10x_flash.o(i.FLASH_EraseAllPages), (72 bytes).
    Removing stm32f10x_flash.o(i.FLASH_EraseOptionBytes), (168 bytes).
    Removing stm32f10x_flash.o(i.FLASH_ErasePage), (76 bytes).
    Removing stm32f10x_flash.o(i.FLASH_GetBank1Status), (52 bytes).
    Removing stm32f10x_flash.o(i.FLASH_GetFlagStatus), (48 bytes).
    Removing stm32f10x_flash.o(i.FLASH_GetPrefetchBufferStatus), (24 bytes).
    Removing stm32f10x_flash.o(i.FLASH_GetReadOutProtectionStatus), (24 bytes).
    Removing stm32f10x_flash.o(i.FLASH_GetStatus), (52 bytes).
==============================================================================

Image Symbol Table

    Local Symbols

    Symbol Name                              Value     Ov Type        Size  Object(Section)

    ../clib/microlib/division.c              0x00000000   Number         0  uidiv.o ABSOLUTE
    ../clib/microlib/division.c              0x00000000   Number         0  uldiv.o ABSOLUTE
    ../clib/microlib/init/entry.s            0x00000000   Number         0  entry2.o ABSOLUTE
    ../clib/microlib/init/entry.s            0x00000000   Number         0  entry7b.o ABSOLUTE
    ../clib/microlib/init/entry.s            0x00000000   Number         0  entry7a.o ABSOLUTE
    ../clib/microlib/init/entry.s            0x00000000   Number         0  entry5.o ABSOLUTE
    ../clib/microlib/init/entry.s            0x00000000   Number         0  entry10b.o ABSOLUTE
    ../clib/microlib/init/entry.s            0x00000000   Number         0  entry11a.o ABSOLUTE
    ../clib/microlib/init/entry.s            0x00000000   Number         0  entry11b.o ABSOLUTE
    ../clib/microlib/init/entry.s            0x00000000   Number         0  entry8a.o ABSOLUTE
    ../clib/microlib/init/entry.s            0x00000000   Number         0  entry.o ABSOLUTE
    ../clib/microlib/init/entry.s            0x00000000   Number         0  entry8b.o ABSOLUTE
    ../clib/microlib/init/entry.s            0x00000000   Number         0  entry9a.o ABSOLUTE
    ../clib/microlib/init/entry.s            0x00000000   Number         0  entry9b.o ABSOLUTE
    ../clib/microlib/init/entry.s            0x00000000   Number         0  entry10a.o ABSOLUTE
    ../clib/microlib/longlong.c              0x00000000   Number         0  llushr.o ABSOLUTE
    ../clib/microlib/longlong.c              0x00000000   Number         0  llsshr.o ABSOLUTE
    ../clib/microlib/longlong.c              0x00000000   Number         0  llshl.o ABSOLUTE
    ../clib/microlib/printf/printf.c         0x00000000   Number         0  printf4.o ABSOLUTE
    ../clib/microlib/printf/printf.c         0x00000000   Number         0  printf6.o ABSOLUTE
    ../clib/microlib/printf/printf.c         0x00000000   Number         0  printf5.o ABSOLUTE
    ../clib/microlib/printf/printf.c         0x00000000   Number         0  printf7.o ABSOLUTE
    ../clib/microlib/printf/printf.c         0x00000000   Number         0  printf8.o ABSOLUTE
    ../clib/microlib/printf/printf.c         0x00000000   Number         0  printfa.o ABSOLUTE
    ../clib/microlib/printf/printf.c         0x00000000   Number         0  printf1.o ABSOLUTE
    ../clib/microlib/printf/printf.c         0x00000000   Number         0  printf0.o ABSOLUTE
    ../clib/microlib/printf/printf.c         0x00000000   Number         0  printfb.o ABSOLUTE
    ../clib/microlib/printf/printf.c         0x00000000   Number         0  printf2.o ABSOLUTE
    ../clib/microlib/printf/printf.c         0x00000000   Number         0  printf3.o ABSOLUTE
    ../clib/microlib/printf/stubs.s          0x00000000   Number         0  stubs.o ABSOLUTE
    ../clib/microlib/stdio/streams.c         0x00000000   Number         0  stdout.o ABSOLUTE
    ../clib/microlib/stubs.s                 0x00000000   Number         0  iusefp.o ABSOLUTE
    ../fplib/microlib/f2d.c                  0x00000000   Number         0  f2d.o ABSOLUTE
    ../fplib/microlib/fpadd.c                0x00000000   Number         0  dadd.o ABSOLUTE
    ../fplib/microlib/fpadd.c                0x00000000   Number         0  fadd.o ABSOLUTE
    ../fplib/microlib/fpdiv.c                0x00000000   Number         0  fdiv.o ABSOLUTE
    ../fplib/microlib/fpdiv.c                0x00000000   Number         0  ddiv.o ABSOLUTE
    ../fplib/microlib/fpepilogue.c           0x00000000   Number         0  depilogue.o ABSOLUTE
    ../fplib/microlib/fpepilogue.c           0x00000000   Number         0  fepilogue.o ABSOLUTE
    ../fplib/microlib/fpfix.c                0x00000000   Number         0  dfixul.o ABSOLUTE
    ../fplib/microlib/fpflt.c                0x00000000   Number         0  dfltui.o ABSOLUTE
    ../fplib/microlib/fpflt.c                0x00000000   Number         0  ffltui.o ABSOLUTE
    ../fplib/microlib/fpmul.c                0x00000000   Number         0  dmul.o ABSOLUTE
    ..\CORE\core_cm3.c                       0x00000000   Number         0  core_cm3.o ABSOLUTE
    ..\CORE\startup_stm32f10x_md.s           0x00000000   Number         0  startup_stm32f10x_md.o ABSOLUTE
    ..\STM32F10x_FWLib\src\misc.c            0x00000000   Number         0  misc.o ABSOLUTE
    ..\STM32F10x_FWLib\src\stm32f10x_adc.c   0x00000000   Number         0  stm32f10x_adc.o ABSOLUTE
    ..\STM32F10x_FWLib\src\stm32f10x_flash.c 0x00000000   Number         0  stm32f10x_flash.o ABSOLUTE
    ..\STM32F10x_FWLib\src\stm32f10x_gpio.c  0x00000000   Number         0  stm32f10x_gpio.o ABSOLUTE
    ..\STM32F10x_FWLib\src\stm32f10x_rcc.c   0x00000000   Number         0  stm32f10x_rcc.o ABSOLUTE
    ..\STM32F10x_FWLib\src\stm32f10x_tim.c   0x00000000   Number         0  stm32f10x_tim.o ABSOLUTE
    ..\STM32F10x_FWLib\src\stm32f10x_usart.c 0x00000000   Number         0  stm32f10x_usart.o ABSOLUTE
    ..\USER\ADC\ADC.c                        0x00000000   Number         0  adc.o ABSOLUTE
    ..\USER\SysTick_Delay.c                  0x00000000   Number         0  systick_delay.o ABSOLUTE
    ..\USER\Usart\USART.c                    0x00000000   Number         0  usart.o ABSOLUTE
    ..\USER\main.c                           0x00000000   Number         0  main.o ABSOLUTE
    ..\USER\stm32f10x_it.c                   0x00000000   Number         0  stm32f10x_it.o ABSOLUTE
    ..\USER\system_stm32f10x.c               0x00000000   Number         0  system_stm32f10x.o ABSOLUTE
    ..\\CORE\\core_cm3.c                     0x00000000   Number         0  core_cm3.o ABSOLUTE
    cdcmple.s                                0x00000000   Number         0  cdcmple.o ABSOLUTE
    cdrcmple.s                               0x00000000   Number         0  cdrcmple.o ABSOLUTE
    dc.s                                     0x00000000   Number         0  dc.o ABSOLUTE
    handlers.s                               0x00000000   Number         0  handlers.o ABSOLUTE
    init.s                                   0x00000000   Number         0  init.o ABSOLUTE
    RESET                                    0x08000000   Section      236  startup_stm32f10x_md.o(RESET)
    .ARM.Collect$$$$00000000                 0x080000ec   Section        0  entry.o(.ARM.Collect$$$$00000000)
    .ARM.Collect$$$$00000001                 0x080000ec   Section        4  entry2.o(.ARM.Collect$$$$00000001)
    .ARM.Collect$$$$00000004                 0x080000f0   Section        4  entry5.o(.ARM.Collect$$$$00000004)
    .ARM.Collect$$$$00000008                 0x080000f4   Section        0  entry7b.o(.ARM.Collect$$$$00000008)
    .ARM.Collect$$$$0000000A                 0x080000f4   Section        0  entry8b.o(.ARM.Collect$$$$0000000A)
    .ARM.Collect$$$$0000000B                 0x080000f4   Section        8  entry9a.o(.ARM.Collect$$$$0000000B)
    .ARM.Collect$$$$0000000D                 0x080000fc   Section        0  entry10a.o(.ARM.Collect$$$$0000000D)
    .ARM.Collect$$$$0000000F                 0x080000fc   Section        0  entry11a.o(.ARM.Collect$$$$0000000F)
    .ARM.Collect$$$$00002712                 0x080000fc   Section        4  entry2.o(.ARM.Collect$$$$00002712)
    __lit__00000000                          0x080000fc   Data           4  entry2.o(.ARM.Collect$$$$00002712)
    .text                                    0x08000100   Section       36  startup_stm32f10x_md.o(.text)
    .text                                    0x08000124   Section        0  fadd.o(.text)
    .text                                    0x080001d4   Section        0  fdiv.o(.text)
    .text                                    0x08000250   Section        0  dadd.o(.text)
    .text                                    0x0800039e   Section        0  dmul.o(.text)
    .text                                    0x08000482   Section        0  ddiv.o(.text)
    .text                                    0x08000560   Section        0  ffltui.o(.text)
    .text                                    0x0800056a   Section        0  dfltui.o(.text)
    .text                                    0x08000584   Section        0  f2d.o(.text)
    .text                                    0x080005ac   Section       48  cdcmple.o(.text)
    .text                                    0x080005dc   Section       48  cdrcmple.o(.text)
    .text                                    0x0800060c   Section        0  uidiv.o(.text)
    .text                                    0x08000638   Section        0  uldiv.o(.text)
    .text                                    0x0800069a   Section        0  llshl.o(.text)
    .text                                    0x080006b8   Section        0  llsshr.o(.text)
    .text                                    0x080006dc   Section        0  fepilogue.o(.text)
    .text                                    0x080006dc   Section        0  iusefp.o(.text)
    .text                                    0x0800074a   Section        0  depilogue.o(.text)
    .text                                    0x08000804   Section        0  dfixul.o(.text)
    .text                                    0x08000834   Section       36  init.o(.text)
    .text                                    0x08000858   Section        0  llushr.o(.text)
    i.ADC1_2_IRQHandler                      0x08000878   Section        0  adc.o(i.ADC1_2_IRQHandler)
    i.ADC_Cmd                                0x0800087a   Section        0  stm32f10x_adc.o(i.ADC_Cmd)
    i.ADC_Configuration                      0x08000890   Section        0  adc.o(i.ADC_Configuration)
    i.ADC_DMACmd                             0x080009b4   Section        0  stm32f10x_adc.o(i.ADC_DMACmd)
    i.ADC_GetCalibrationStatus               0x080009ca   Section        0  stm32f10x_adc.o(i.ADC_GetCalibrationStatus)
    i.ADC_GetConversionValue                 0x080009de   Section        0  stm32f10x_adc.o(i.ADC_GetConversionValue)
    i.ADC_GetFlagStatus                      0x080009e6   Section        0  stm32f10x_adc.o(i.ADC_GetFlagStatus)
    i.ADC_GetResetCalibrationStatus          0x080009f8   Section        0  stm32f10x_adc.o(i.ADC_GetResetCalibrationStatus)
    i.ADC_Init                               0x08000a0c   Section        0  stm32f10x_adc.o(i.ADC_Init)
    i.ADC_RegularChannelConfig               0x08000a5c   Section        0  stm32f10x_adc.o(i.ADC_RegularChannelConfig)
    i.ADC_ResetCalibration                   0x08000b14   Section        0  stm32f10x_adc.o(i.ADC_ResetCalibration)
    i.ADC_SoftwareStartConvCmd               0x08000b1e   Section        0  stm32f10x_adc.o(i.ADC_SoftwareStartConvCmd)
    i.ADC_StartCalibration                   0x08000b34   Section        0  stm32f10x_adc.o(i.ADC_StartCalibration)
    i.Binary_Search                          0x08000b3e   Section        0  adc.o(i.Binary_Search)
    i.BusFault_Handler                       0x08000c2c   Section        0  stm32f10x_it.o(i.BusFault_Handler)
    i.Check_Vol                              0x08000c30   Section        0  adc.o(i.Check_Vol)
    i.DebugMon_Handler                       0x08000cc0   Section        0  stm32f10x_it.o(i.DebugMon_Handler)
    i.Delay_ms                               0x08000cc4   Section        0  systick_delay.o(i.Delay_ms)
    i.GPIO_Init                              0x08000ce0   Section        0  stm32f10x_gpio.o(i.GPIO_Init)
    i.HardFault_Handler                      0x08000df6   Section        0  stm32f10x_it.o(i.HardFault_Handler)
    i.MemManage_Handler                      0x08000dfa   Section        0  stm32f10x_it.o(i.MemManage_Handler)
    i.NMI_Handler                            0x08000dfe   Section        0  stm32f10x_it.o(i.NMI_Handler)
    i.NVIC_Init                              0x08000e00   Section        0  misc.o(i.NVIC_Init)
    i.NVIC_PriorityGroupConfig               0x08000e70   Section        0  misc.o(i.NVIC_PriorityGroupConfig)
    i.PendSV_Handler                         0x08000e84   Section        0  stm32f10x_it.o(i.PendSV_Handler)
    i.RCC_APB2PeriphClockCmd                 0x08000e88   Section        0  stm32f10x_rcc.o(i.RCC_APB2PeriphClockCmd)
    i.RCC_GetClocksFreq                      0x08000ea8   Section        0  stm32f10x_rcc.o(i.RCC_GetClocksFreq)
    i.Read_ADC_Data_10K                      0x08000f7c   Section        0  adc.o(i.Read_ADC_Data_10K)
    i.SVC_Handler                            0x0800107c   Section        0  stm32f10x_it.o(i.SVC_Handler)
    i.SetSysClock                            0x0800107e   Section        0  system_stm32f10x.o(i.SetSysClock)
    SetSysClock                              0x0800107f   Thumb Code     8  system_stm32f10x.o(i.SetSysClock)
    i.SetSysClockTo72                        0x08001088   Section        0  system_stm32f10x.o(i.SetSysClockTo72)
    SetSysClockTo72                          0x08001089   Thumb Code   214  system_stm32f10x.o(i.SetSysClockTo72)
    i.SysTick_Handler                        0x08001168   Section        0  systick_delay.o(i.SysTick_Handler)
    i.SystemInit                             0x08001180   Section        0  system_stm32f10x.o(i.SystemInit)
    i.USART1_Configuration                   0x080011e0   Section        0  usart.o(i.USART1_Configuration)
    i.USART1_IRQHandler                      0x08001258   Section        0  usart.o(i.USART1_IRQHandler)
    i.USART_ClearFlag                        0x08001294   Section        0  stm32f10x_usart.o(i.USART_ClearFlag)
    i.USART_ClearITPendingBit                0x080012a6   Section        0  stm32f10x_usart.o(i.USART_ClearITPendingBit)
    i.USART_Cmd                              0x080012c4   Section        0  stm32f10x_usart.o(i.USART_Cmd)
    i.USART_GetFlagStatus                    0x080012dc   Section        0  stm32f10x_usart.o(i.USART_GetFlagStatus)
    i.USART_GetITStatus                      0x080012f6   Section        0  stm32f10x_usart.o(i.USART_GetITStatus)
    i.USART_ITConfig                         0x0800134a   Section        0  stm32f10x_usart.o(i.USART_ITConfig)
    i.USART_Init                             0x08001394   Section        0  stm32f10x_usart.o(i.USART_Init)
    i.USART_NVIC_Configuration               0x0800146c   Section        0  usart.o(i.USART_NVIC_Configuration)
    i.USART_ReceiveData                      0x080014b8   Section        0  stm32f10x_usart.o(i.USART_ReceiveData)
    i.USART_SendData                         0x080014c2   Section        0  stm32f10x_usart.o(i.USART_SendData)
    i.UsageFault_Handler                     0x080014ca   Section        0  stm32f10x_it.o(i.UsageFault_Handler)
    i.__0printf                              0x080014d0   Section        0  printfa.o(i.__0printf)
    i.__scatterload_copy                     0x080014f0   Section       14  handlers.o(i.__scatterload_copy)
    i.__scatterload_null                     0x080014fe   Section        2  handlers.o(i.__scatterload_null)
    i.__scatterload_zeroinit                 0x08001500   Section       14  handlers.o(i.__scatterload_zeroinit)
    i._fp_digits                             0x08001510   Section        0  printfa.o(i._fp_digits)
    _fp_digits                               0x08001511   Thumb Code   366  printfa.o(i._fp_digits)
    i._printf_core                           0x08001694   Section        0  printfa.o(i._printf_core)
    _printf_core                             0x08001695   Thumb Code  1744  printfa.o(i._printf_core)
    i._printf_post_padding                   0x08001d70   Section        0  printfa.o(i._printf_post_padding)
    _printf_post_padding                     0x08001d71   Thumb Code    36  printfa.o(i._printf_post_padding)
    i._printf_pre_padding                    0x08001d94   Section        0  printfa.o(i._printf_pre_padding)
    _printf_pre_padding                      0x08001d95   Thumb Code    46  printfa.o(i._printf_pre_padding)
    i.fputc                                  0x08001dc4   Section        0  usart.o(i.fputc)
    i.main                                   0x08001de8   Section        0  main.o(i.main)
    .constdata                               0x08001e80   Section     1928  adc.o(.constdata)
    .data                                    0x20000000   Section        4  systick_delay.o(.data)
    .data                                    0x20000004   Section       20  stm32f10x_rcc.o(.data)
    APBAHBPrescTable                         0x20000004   Data          16  stm32f10x_rcc.o(.data)
    ADCPrescTable                            0x20000014   Data           4  stm32f10x_rcc.o(.data)
    .data                                    0x20000018   Section        4  stdout.o(.data)
    STACK                                    0x20000020   Section     1024  startup_stm32f10x_md.o(STACK)

    Global Symbols

    Symbol Name                              Value     Ov Type        Size  Object(Section)

    BuildAttributes$$THM_ISAv4$P$D$K$B$S$PE$A:L22UL41UL21$X:L11$S22US41US21$IEEE1$IW$USESV6$~STKCKD$USESV7$~SHL$OTIME$ROPI$EBA8$MICROLIB$REQ8$PRES8$EABIv2 0x00000000   Number         0  anon$$obj.o ABSOLUTE
    __ARM_use_no_argv                        0x00000000   Number         0  main.o ABSOLUTE
    _printf_a                                0x00000000   Number         0  stubs.o ABSOLUTE
    _printf_c                                0x00000000   Number         0  stubs.o ABSOLUTE
    _printf_charcount                        0x00000000   Number         0  stubs.o ABSOLUTE
    _printf_d                                0x00000000   Number         0  stubs.o ABSOLUTE
    _printf_e                                0x00000000   Number         0  stubs.o ABSOLUTE
    _printf_f                                0x00000000   Number         0  stubs.o ABSOLUTE
    _printf_flags                            0x00000000   Number         0  stubs.o ABSOLUTE
    _printf_fp_dec                           0x00000000   Number         0  stubs.o ABSOLUTE
    _printf_fp_hex                           0x00000000   Number         0  stubs.o ABSOLUTE
    _printf_g                                0x00000000   Number         0  stubs.o ABSOLUTE
    _printf_i                                0x00000000   Number         0  stubs.o ABSOLUTE
    _printf_int_dec                          0x00000000   Number         0  stubs.o ABSOLUTE
    _printf_l                                0x00000000   Number         0  stubs.o ABSOLUTE
    _printf_lc                               0x00000000   Number         0  stubs.o ABSOLUTE
    _printf_ll                               0x00000000   Number         0  stubs.o ABSOLUTE
    _printf_lld                              0x00000000   Number         0  stubs.o ABSOLUTE
    _printf_lli                              0x00000000   Number         0  stubs.o ABSOLUTE
    _printf_llo                              0x00000000   Number         0  stubs.o ABSOLUTE
    _printf_llu                              0x00000000   Number         0  stubs.o ABSOLUTE
    _printf_llx                              0x00000000   Number         0  stubs.o ABSOLUTE
    _printf_longlong_dec                     0x00000000   Number         0  stubs.o ABSOLUTE
    _printf_longlong_hex                     0x00000000   Number         0  stubs.o ABSOLUTE
    _printf_longlong_oct                     0x00000000   Number         0  stubs.o ABSOLUTE
    _printf_ls                               0x00000000   Number         0  stubs.o ABSOLUTE
    _printf_mbtowc                           0x00000000   Number         0  stubs.o ABSOLUTE
    _printf_n                                0x00000000   Number         0  stubs.o ABSOLUTE
    _printf_o                                0x00000000   Number         0  stubs.o ABSOLUTE
    _printf_p                                0x00000000   Number         0  stubs.o ABSOLUTE
    _printf_percent                          0x00000000   Number         0  stubs.o ABSOLUTE
    _printf_pre_padding                      0x00000000   Number         0  stubs.o ABSOLUTE
    _printf_return_value                     0x00000000   Number         0  stubs.o ABSOLUTE
    _printf_s                                0x00000000   Number         0  stubs.o ABSOLUTE
    _printf_sizespec                         0x00000000   Number         0  stubs.o ABSOLUTE
    _printf_str                              0x00000000   Number         0  stubs.o ABSOLUTE
    _printf_truncate_signed                  0x00000000   Number         0  stubs.o ABSOLUTE
    _printf_truncate_unsigned                0x00000000   Number         0  stubs.o ABSOLUTE
    _printf_u                                0x00000000   Number         0  stubs.o ABSOLUTE
    _printf_wc                               0x00000000   Number         0  stubs.o ABSOLUTE
    _printf_wctomb                           0x00000000   Number         0  stubs.o ABSOLUTE
    _printf_widthprec                        0x00000000   Number         0  stubs.o ABSOLUTE
    _printf_x                                0x00000000   Number         0  stubs.o ABSOLUTE
    __cpp_initialize__aeabi_                  - Undefined Weak Reference
    __cxa_finalize                            - Undefined Weak Reference
    __decompress                              - Undefined Weak Reference
    _clock_init                               - Undefined Weak Reference
    _microlib_exit                            - Undefined Weak Reference
    __Vectors_Size                           0x000000ec   Number         0  startup_stm32f10x_md.o ABSOLUTE
    __Vectors                                0x08000000   Data           4  startup_stm32f10x_md.o(RESET)
    __Vectors_End                            0x080000ec   Data           0  startup_stm32f10x_md.o(RESET)
    __main                                   0x080000ed   Thumb Code     0  entry.o(.ARM.Collect$$$$00000000)
    _main_stk                                0x080000ed   Thumb Code     0  entry2.o(.ARM.Collect$$$$00000001)
    _main_scatterload                        0x080000f1   Thumb Code     0  entry5.o(.ARM.Collect$$$$00000004)
    __main_after_scatterload                 0x080000f5   Thumb Code     0  entry5.o(.ARM.Collect$$$$00000004)
    _main_clock                              0x080000f5   Thumb Code     0  entry7b.o(.ARM.Collect$$$$00000008)
    _main_cpp_init                           0x080000f5   Thumb Code     0  entry8b.o(.ARM.Collect$$$$0000000A)
    _main_init                               0x080000f5   Thumb Code     0  entry9a.o(.ARM.Collect$$$$0000000B)
    __rt_final_cpp                           0x080000fd   Thumb Code     0  entry10a.o(.ARM.Collect$$$$0000000D)
    __rt_final_exit                          0x080000fd   Thumb Code     0  entry11a.o(.ARM.Collect$$$$0000000F)
    Reset_Handler                            0x08000101   Thumb Code     8  startup_stm32f10x_md.o(.text)
    CAN1_RX1_IRQHandler                      0x0800011b   Thumb Code     0  startup_stm32f10x_md.o(.text)
    CAN1_SCE_IRQHandler                      0x0800011b   Thumb Code     0  startup_stm32f10x_md.o(.text)
    DMA1_Channel1_IRQHandler                 0x0800011b   Thumb Code     0  startup_stm32f10x_md.o(.text)
    DMA1_Channel2_IRQHandler                 0x0800011b   Thumb Code     0  startup_stm32f10x_md.o(.text)
    DMA1_Channel3_IRQHandler                 0x0800011b   Thumb Code     0  startup_stm32f10x_md.o(.text)
    DMA1_Channel4_IRQHandler                 0x0800011b   Thumb Code     0  startup_stm32f10x_md.o(.text)
    DMA1_Channel5_IRQHandler                 0x0800011b   Thumb Code     0  startup_stm32f10x_md.o(.text)
    DMA1_Channel6_IRQHandler                 0x0800011b   Thumb Code     0  startup_stm32f10x_md.o(.text)
    DMA1_Channel7_IRQHandler                 0x0800011b   Thumb Code     0  startup_stm32f10x_md.o(.text)
    EXTI0_IRQHandler                         0x0800011b   Thumb Code     0  startup_stm32f10x_md.o(.text)
    EXTI15_10_IRQHandler                     0x0800011b   Thumb Code     0  startup_stm32f10x_md.o(.text)
    EXTI1_IRQHandler                         0x0800011b   Thumb Code     0  startup_stm32f10x_md.o(.text)
    EXTI2_IRQHandler                         0x0800011b   Thumb Code     0  startup_stm32f10x_md.o(.text)
    EXTI3_IRQHandler                         0x0800011b   Thumb Code     0  startup_stm32f10x_md.o(.text)
    EXTI4_IRQHandler                         0x0800011b   Thumb Code     0  startup_stm32f10x_md.o(.text)
    EXTI9_5_IRQHandler                       0x0800011b   Thumb Code     0  startup_stm32f10x_md.o(.text)
    FLASH_IRQHandler                         0x0800011b   Thumb Code     0  startup_stm32f10x_md.o(.text)
    I2C1_ER_IRQHandler                       0x0800011b   Thumb Code     0  startup_stm32f10x_md.o(.text)
    I2C1_EV_IRQHandler                       0x0800011b   Thumb Code     0  startup_stm32f10x_md.o(.text)
    I2C2_ER_IRQHandler                       0x0800011b   Thumb Code     0  startup_stm32f10x_md.o(.text)
    I2C2_EV_IRQHandler                       0x0800011b   Thumb Code     0  startup_stm32f10x_md.o(.text)
    PVD_IRQHandler                           0x0800011b   Thumb Code     0  startup_stm32f10x_md.o(.text)
    RCC_IRQHandler                           0x0800011b   Thumb Code     0  startup_stm32f10x_md.o(.text)
    RTCAlarm_IRQHandler                      0x0800011b   Thumb Code     0  startup_stm32f10x_md.o(.text)
    RTC_IRQHandler                           0x0800011b   Thumb Code     0  startup_stm32f10x_md.o(.text)
    SPI1_IRQHandler                          0x0800011b   Thumb Code     0  startup_stm32f10x_md.o(.text)
    SPI2_IRQHandler                          0x0800011b   Thumb Code     0  startup_stm32f10x_md.o(.text)
    TAMPER_IRQHandler                        0x0800011b   Thumb Code     0  startup_stm32f10x_md.o(.text)
    TIM1_BRK_IRQHandler                      0x0800011b   Thumb Code     0  startup_stm32f10x_md.o(.text)
    TIM1_CC_IRQHandler                       0x0800011b   Thumb Code     0  startup_stm32f10x_md.o(.text)
    TIM1_TRG_COM_IRQHandler                  0x0800011b   Thumb Code     0  startup_stm32f10x_md.o(.text)
    TIM1_UP_IRQHandler                       0x0800011b   Thumb Code     0  startup_stm32f10x_md.o(.text)
    TIM2_IRQHandler                          0x0800011b   Thumb Code     0  startup_stm32f10x_md.o(.text)
    TIM3_IRQHandler                          0x0800011b   Thumb Code     0  startup_stm32f10x_md.o(.text)
    TIM4_IRQHandler                          0x0800011b   Thumb Code     0  startup_stm32f10x_md.o(.text)
    USART2_IRQHandler                        0x0800011b   Thumb Code     0  startup_stm32f10x_md.o(.text)
    USART3_IRQHandler                        0x0800011b   Thumb Code     0  startup_stm32f10x_md.o(.text)
    USBWakeUp_IRQHandler                     0x0800011b   Thumb Code     0  startup_stm32f10x_md.o(.text)
    USB_HP_CAN1_TX_IRQHandler                0x0800011b   Thumb Code     0  startup_stm32f10x_md.o(.text)
    USB_LP_CAN1_RX0_IRQHandler               0x0800011b   Thumb Code     0  startup_stm32f10x_md.o(.text)
    WWDG_IRQHandler                          0x0800011b   Thumb Code     0  startup_stm32f10x_md.o(.text)
    __aeabi_fadd                             0x08000125   Thumb Code   164  fadd.o(.text)
    __aeabi_fsub                             0x080001c9   Thumb Code     6  fadd.o(.text)
    __aeabi_frsub                            0x080001cf   Thumb Code     6  fadd.o(.text)
    __aeabi_fdiv                             0x080001d5   Thumb Code   124  fdiv.o(.text)
    __aeabi_dadd                             0x08000251   Thumb Code   322  dadd.o(.text)
    __aeabi_dsub                             0x08000393   Thumb Code     6  dadd.o(.text)
    __aeabi_drsub                            0x08000399   Thumb Code     6  dadd.o(.text)
    __aeabi_dmul                             0x0800039f   Thumb Code   228  dmul.o(.text)
    __aeabi_ddiv                             0x08000483   Thumb Code   222  ddiv.o(.text)
    __aeabi_ui2f                             0x08000561   Thumb Code    10  ffltui.o(.text)
    __aeabi_ui2d                             0x0800056b   Thumb Code    26  dfltui.o(.text)
    __aeabi_f2d                              0x08000585   Thumb Code    38  f2d.o(.text)
    __aeabi_cdcmpeq                          0x080005ad   Thumb Code     0  cdcmple.o(.text)
    __aeabi_cdcmple                          0x080005ad   Thumb Code    48  cdcmple.o(.text)
    __aeabi_cdrcmple                         0x080005dd   Thumb Code    48  cdrcmple.o(.text)
    __aeabi_uidiv                            0x0800060d   Thumb Code     0  uidiv.o(.text)
    __aeabi_uidivmod                         0x0800060d   Thumb Code    44  uidiv.o(.text)
    __aeabi_uldivmod                         0x08000639   Thumb Code    98  uldiv.o(.text)
    __aeabi_llsl                             0x0800069b   Thumb Code    30  llshl.o(.text)
    _ll_shift_l                              0x0800069b   Thumb Code     0  llshl.o(.text)
    __aeabi_lasr                             0x080006b9   Thumb Code    36  llsshr.o(.text)
    _ll_sshift_r                             0x080006b9   Thumb Code     0  llsshr.o(.text)
    __I$use$fp                               0x080006dd   Thumb Code     0  iusefp.o(.text)
    _float_round                             0x080006dd   Thumb Code    18  fepilogue.o(.text)
    _float_epilogue                          0x080006ef   Thumb Code    92  fepilogue.o(.text)
    _double_round                            0x0800074b   Thumb Code    30  depilogue.o(.text)
    _double_epilogue                         0x08000769   Thumb Code   156  depilogue.o(.text)
    __aeabi_d2ulz                            0x08000805   Thumb Code    48  dfixul.o(.text)
    __scatterload                            0x08000835   Thumb Code    28  init.o(.text)
    __scatterload_rt2                        0x08000835   Thumb Code     0  init.o(.text)
    __aeabi_llsr                             0x08000859   Thumb Code    32  llushr.o(.text)
    _ll_ushift_r                             0x08000859   Thumb Code     0  llushr.o(.text)
    ADC1_2_IRQHandler                        0x08000879   Thumb Code     2  adc.o(i.ADC1_2_IRQHandler)
    ADC_Cmd                                  0x0800087b   Thumb Code    22  stm32f10x_adc.o(i.ADC_Cmd)
    ADC_Configuration                        0x08000891   Thumb Code   278  adc.o(i.ADC_Configuration)
    ADC_DMACmd                               0x080009b5   Thumb Code    22  stm32f10x_adc.o(i.ADC_DMACmd)
    ADC_GetCalibrationStatus                 0x080009cb   Thumb Code    20  stm32f10x_adc.o(i.ADC_GetCalibrationStatus)
    ADC_GetConversionValue                   0x080009df   Thumb Code     8  stm32f10x_adc.o(i.ADC_GetConversionValue)
    ADC_GetFlagStatus                        0x080009e7   Thumb Code    18  stm32f10x_adc.o(i.ADC_GetFlagStatus)
    ADC_GetResetCalibrationStatus            0x080009f9   Thumb Code    20  stm32f10x_adc.o(i.ADC_GetResetCalibrationStatus)
    ADC_Init                                 0x08000a0d   Thumb Code    70  stm32f10x_adc.o(i.ADC_Init)
    ADC_RegularChannelConfig                 0x08000a5d   Thumb Code   184  stm32f10x_adc.o(i.ADC_RegularChannelConfig)
    ADC_ResetCalibration                     0x08000b15   Thumb Code    10  stm32f10x_adc.o(i.ADC_ResetCalibration)
    ADC_SoftwareStartConvCmd                 0x08000b1f   Thumb Code    22  stm32f10x_adc.o(i.ADC_SoftwareStartConvCmd)
    ADC_StartCalibration                     0x08000b35   Thumb Code    10  stm32f10x_adc.o(i.ADC_StartCalibration)
    Binary_Search                            0x08000b3f   Thumb Code   238  adc.o(i.Binary_Search)
    BusFault_Handler                         0x08000c2d   Thumb Code     4  stm32f10x_it.o(i.BusFault_Handler)
    Check_Vol                                0x08000c31   Thumb Code    66  adc.o(i.Check_Vol)
    DebugMon_Handler                         0x08000cc1   Thumb Code     2  stm32f10x_it.o(i.DebugMon_Handler)
    Delay_ms                                 0x08000cc5   Thumb Code    22  systick_delay.o(i.Delay_ms)
    GPIO_Init                                0x08000ce1   Thumb Code   278  stm32f10x_gpio.o(i.GPIO_Init)
    HardFault_Handler                        0x08000df7   Thumb Code     4  stm32f10x_it.o(i.HardFault_Handler)
    MemManage_Handler                        0x08000dfb   Thumb Code     4  stm32f10x_it.o(i.MemManage_Handler)
    NMI_Handler                              0x08000dff   Thumb Code     2  stm32f10x_it.o(i.NMI_Handler)
    NVIC_Init                                0x08000e01   Thumb Code   100  misc.o(i.NVIC_Init)
    NVIC_PriorityGroupConfig                 0x08000e71   Thumb Code    10  misc.o(i.NVIC_PriorityGroupConfig)
    PendSV_Handler                           0x08000e85   Thumb Code     2  stm32f10x_it.o(i.PendSV_Handler)
    RCC_APB2PeriphClockCmd                   0x08000e89   Thumb Code    26  stm32f10x_rcc.o(i.RCC_APB2PeriphClockCmd)
    RCC_GetClocksFreq                        0x08000ea9   Thumb Code   192  stm32f10x_rcc.o(i.RCC_GetClocksFreq)
    Read_ADC_Data_10K                        0x08000f7d   Thumb Code   206  adc.o(i.Read_ADC_Data_10K)
    SVC_Handler                              0x0800107d   Thumb Code     2  stm32f10x_it.o(i.SVC_Handler)
    SysTick_Handler                          0x08001169   Thumb Code    18  systick_delay.o(i.SysTick_Handler)
    SystemInit                               0x08001181   Thumb Code    78  system_stm32f10x.o(i.SystemInit)
    USART1_Configuration                     0x080011e1   Thumb Code   112  usart.o(i.USART1_Configuration)
    USART1_IRQHandler                        0x08001259   Thumb Code    56  usart.o(i.USART1_IRQHandler)
    USART_ClearFlag                          0x08001295   Thumb Code    18  stm32f10x_usart.o(i.USART_ClearFlag)
    USART_ClearITPendingBit                  0x080012a7   Thumb Code    30  stm32f10x_usart.o(i.USART_ClearITPendingBit)
    USART_Cmd                                0x080012c5   Thumb Code    24  stm32f10x_usart.o(i.USART_Cmd)
    USART_GetFlagStatus                      0x080012dd   Thumb Code    26  stm32f10x_usart.o(i.USART_GetFlagStatus)
    USART_GetITStatus                        0x080012f7   Thumb Code    84  stm32f10x_usart.o(i.USART_GetITStatus)
    USART_ITConfig                           0x0800134b   Thumb Code    74  stm32f10x_usart.o(i.USART_ITConfig)
    USART_Init                               0x08001395   Thumb Code   210  stm32f10x_usart.o(i.USART_Init)
    USART_NVIC_Configuration                 0x0800146d   Thumb Code    70  usart.o(i.USART_NVIC_Configuration)
    USART_ReceiveData                        0x080014b9   Thumb Code    10  stm32f10x_usart.o(i.USART_ReceiveData)
    USART_SendData                           0x080014c3   Thumb Code     8  stm32f10x_usart.o(i.USART_SendData)
    UsageFault_Handler                       0x080014cb   Thumb Code     4  stm32f10x_it.o(i.UsageFault_Handler)
    __0printf                                0x080014d1   Thumb Code    22  printfa.o(i.__0printf)
    __1printf                                0x080014d1   Thumb Code     0  printfa.o(i.__0printf)
    __2printf                                0x080014d1   Thumb Code     0  printfa.o(i.__0printf)
    __c89printf                              0x080014d1   Thumb Code     0  printfa.o(i.__0printf)
    printf                                   0x080014d1   Thumb Code     0  printfa.o(i.__0printf)
    __scatterload_copy                       0x080014f1   Thumb Code    14  handlers.o(i.__scatterload_copy)
    __scatterload_null                       0x080014ff   Thumb Code     2  handlers.o(i.__scatterload_null)
    __scatterload_zeroinit                   0x08001501   Thumb Code    14  handlers.o(i.__scatterload_zeroinit)
    fputc                                    0x08001dc5   Thumb Code    32  usart.o(i.fputc)
    main                                     0x08001de9   Thumb Code   112  main.o(i.main)
    Temp_Tab_10K                             0x08001e80   Data        1928  adc.o(.constdata)
    Region$$Table$$Base                      0x08002608   Number         0  anon$$obj.o(Region$$Table)
    Region$$Table$$Limit                     0x08002628   Number         0  anon$$obj.o(Region$$Table)
    SysTick_Delay                            0x20000000   Data           4  systick_delay.o(.data)
    __stdout                                 0x20000018   Data           4  stdout.o(.data)
    __initial_sp                             0x20000420   Data           0  startup_stm32f10x_md.o(STACK)



==============================================================================

Memory Map of the image

  Image Entry point : 0x080000ed

  Load Region LR_IROM1 (Base: 0x08000000, Size: 0x00002644, Max: 0x00080000, ABSOLUTE)

    Execution Region ER_IROM1 (Exec base: 0x08000000, Load base: 0x08000000, Size: 0x00002628, Max: 0x00080000, ABSOLUTE)

    Exec Addr    Load Addr    Size         Type   Attr      Idx    E Section Name        Object

    0x08000000   0x08000000   0x000000ec   Data   RO          288    RESET               startup_stm32f10x_md.o
    0x080000ec   0x080000ec   0x00000000   Code   RO         1767  * .ARM.Collect$$$$00000000  mc_w.l(entry.o)
    0x080000ec   0x080000ec   0x00000004   Code   RO         2051    .ARM.Collect$$$$00000001  mc_w.l(entry2.o)
    0x080000f0   0x080000f0   0x00000004   Code   RO         2054    .ARM.Collect$$$$00000004  mc_w.l(entry5.o)
    0x080000f4   0x080000f4   0x00000000   Code   RO         2056    .ARM.Collect$$$$00000008  mc_w.l(entry7b.o)
    0x080000f4   0x080000f4   0x00000000   Code   RO         2058    .ARM.Collect$$$$0000000A  mc_w.l(entry8b.o)
    0x080000f4   0x080000f4   0x00000008   Code   RO         2059    .ARM.Collect$$$$0000000B  mc_w.l(entry9a.o)
    0x080000fc   0x080000fc   0x00000000   Code   RO         2061    .ARM.Collect$$$$0000000D  mc_w.l(entry10a.o)
    0x080000fc   0x080000fc   0x00000000   Code   RO         2063    .ARM.Collect$$$$0000000F  mc_w.l(entry11a.o)
    0x080000fc   0x080000fc   0x00000004   Code   RO         2052    .ARM.Collect$$$$00002712  mc_w.l(entry2.o)
    0x08000100   0x08000100   0x00000024   Code   RO          289    .text               startup_stm32f10x_md.o
    0x08000124   0x08000124   0x000000b0   Code   RO         2031    .text               mf_w.l(fadd.o)
    0x080001d4   0x080001d4   0x0000007c   Code   RO         2033    .text               mf_w.l(fdiv.o)
    0x08000250   0x08000250   0x0000014e   Code   RO         2035    .text               mf_w.l(dadd.o)
    0x0800039e   0x0800039e   0x000000e4   Code   RO         2037    .text               mf_w.l(dmul.o)
    0x08000482   0x08000482   0x000000de   Code   RO         2039    .text               mf_w.l(ddiv.o)
    0x08000560   0x08000560   0x0000000a   Code   RO         2041    .text               mf_w.l(ffltui.o)
    0x0800056a   0x0800056a   0x0000001a   Code   RO         2043    .text               mf_w.l(dfltui.o)
    0x08000584   0x08000584   0x00000026   Code   RO         2045    .text               mf_w.l(f2d.o)
    0x080005aa   0x080005aa   0x00000002   PAD
    0x080005ac   0x080005ac   0x00000030   Code   RO         2047    .text               mf_w.l(cdcmple.o)
    0x080005dc   0x080005dc   0x00000030   Code   RO         2049    .text               mf_w.l(cdrcmple.o)
    0x0800060c   0x0800060c   0x0000002c   Code   RO         2066    .text               mc_w.l(uidiv.o)
    0x08000638   0x08000638   0x00000062   Code   RO         2068    .text               mc_w.l(uldiv.o)
    0x0800069a   0x0800069a   0x0000001e   Code   RO         2070    .text               mc_w.l(llshl.o)
    0x080006b8   0x080006b8   0x00000024   Code   RO         2072    .text               mc_w.l(llsshr.o)
    0x080006dc   0x080006dc   0x00000000   Code   RO         2074    .text               mc_w.l(iusefp.o)
    0x080006dc   0x080006dc   0x0000006e   Code   RO         2075    .text               mf_w.l(fepilogue.o)
    0x0800074a   0x0800074a   0x000000ba   Code   RO         2077    .text               mf_w.l(depilogue.o)
    0x08000804   0x08000804   0x00000030   Code   RO         2079    .text               mf_w.l(dfixul.o)
    0x08000834   0x08000834   0x00000024   Code   RO         2081    .text               mc_w.l(init.o)
    0x08000858   0x08000858   0x00000020   Code   RO         2083    .text               mc_w.l(llushr.o)
    0x08000878   0x08000878   0x00000002   Code   RO          194    i.ADC1_2_IRQHandler  adc.o
    0x0800087a   0x0800087a   0x00000016   Code   RO         1551    i.ADC_Cmd           stm32f10x_adc.o
    0x08000890   0x08000890   0x00000124   Code   RO          196    i.ADC_Configuration  adc.o
    0x080009b4   0x080009b4   0x00000016   Code   RO         1552    i.ADC_DMACmd        stm32f10x_adc.o
    0x080009ca   0x080009ca   0x00000014   Code   RO         1559    i.ADC_GetCalibrationStatus  stm32f10x_adc.o
    0x080009de   0x080009de   0x00000008   Code   RO         1560    i.ADC_GetConversionValue  stm32f10x_adc.o
    0x080009e6   0x080009e6   0x00000012   Code   RO         1562    i.ADC_GetFlagStatus  stm32f10x_adc.o
    0x080009f8   0x080009f8   0x00000014   Code   RO         1565    i.ADC_GetResetCalibrationStatus  stm32f10x_adc.o
    0x08000a0c   0x08000a0c   0x00000050   Code   RO         1569    i.ADC_Init          stm32f10x_adc.o
    0x08000a5c   0x08000a5c   0x000000b8   Code   RO         1573    i.ADC_RegularChannelConfig  stm32f10x_adc.o
    0x08000b14   0x08000b14   0x0000000a   Code   RO         1574    i.ADC_ResetCalibration  stm32f10x_adc.o
    0x08000b1e   0x08000b1e   0x00000016   Code   RO         1576    i.ADC_SoftwareStartConvCmd  stm32f10x_adc.o
    0x08000b34   0x08000b34   0x0000000a   Code   RO         1578    i.ADC_StartCalibration  stm32f10x_adc.o
    0x08000b3e   0x08000b3e   0x000000ee   Code   RO          197    i.Binary_Search     adc.o
    0x08000c2c   0x08000c2c   0x00000004   Code   RO           72    i.BusFault_Handler  stm32f10x_it.o
    0x08000c30   0x08000c30   0x00000090   Code   RO          198    i.Check_Vol         adc.o
    0x08000cc0   0x08000cc0   0x00000002   Code   RO           73    i.DebugMon_Handler  stm32f10x_it.o
    0x08000cc2   0x08000cc2   0x00000002   PAD
    0x08000cc4   0x08000cc4   0x0000001c   Code   RO          167    i.Delay_ms          systick_delay.o
    0x08000ce0   0x08000ce0   0x00000116   Code   RO          473    i.GPIO_Init         stm32f10x_gpio.o
    0x08000df6   0x08000df6   0x00000004   Code   RO           74    i.HardFault_Handler  stm32f10x_it.o
    0x08000dfa   0x08000dfa   0x00000004   Code   RO           75    i.MemManage_Handler  stm32f10x_it.o
    0x08000dfe   0x08000dfe   0x00000002   Code   RO           76    i.NMI_Handler       stm32f10x_it.o
    0x08000e00   0x08000e00   0x00000070   Code   RO         1509    i.NVIC_Init         misc.o
    0x08000e70   0x08000e70   0x00000014   Code   RO         1510    i.NVIC_PriorityGroupConfig  misc.o
    0x08000e84   0x08000e84   0x00000002   Code   RO           77    i.PendSV_Handler    stm32f10x_it.o
    0x08000e86   0x08000e86   0x00000002   PAD
    0x08000e88   0x08000e88   0x00000020   Code   RO          585    i.RCC_APB2PeriphClockCmd  stm32f10x_rcc.o
    0x08000ea8   0x08000ea8   0x000000d4   Code   RO          593    i.RCC_GetClocksFreq  stm32f10x_rcc.o
    0x08000f7c   0x08000f7c   0x00000100   Code   RO          199    i.Read_ADC_Data_10K  adc.o
    0x0800107c   0x0800107c   0x00000002   Code   RO           78    i.SVC_Handler       stm32f10x_it.o
    0x0800107e   0x0800107e   0x00000008   Code   RO          133    i.SetSysClock       system_stm32f10x.o
    0x08001086   0x08001086   0x00000002   PAD
    0x08001088   0x08001088   0x000000e0   Code   RO          134    i.SetSysClockTo72   system_stm32f10x.o
    0x08001168   0x08001168   0x00000018   Code   RO          169    i.SysTick_Handler   systick_delay.o
    0x08001180   0x08001180   0x00000060   Code   RO          136    i.SystemInit        system_stm32f10x.o
    0x080011e0   0x080011e0   0x00000078   Code   RO          240    i.USART1_Configuration  usart.o
    0x08001258   0x08001258   0x0000003c   Code   RO          241    i.USART1_IRQHandler  usart.o
    0x08001294   0x08001294   0x00000012   Code   RO          781    i.USART_ClearFlag   stm32f10x_usart.o
    0x080012a6   0x080012a6   0x0000001e   Code   RO          782    i.USART_ClearITPendingBit  stm32f10x_usart.o
    0x080012c4   0x080012c4   0x00000018   Code   RO          785    i.USART_Cmd         stm32f10x_usart.o
    0x080012dc   0x080012dc   0x0000001a   Code   RO          788    i.USART_GetFlagStatus  stm32f10x_usart.o
    0x080012f6   0x080012f6   0x00000054   Code   RO          789    i.USART_GetITStatus  stm32f10x_usart.o
    0x0800134a   0x0800134a   0x0000004a   Code   RO          791    i.USART_ITConfig    stm32f10x_usart.o
    0x08001394   0x08001394   0x000000d8   Code   RO          792    i.USART_Init        stm32f10x_usart.o
    0x0800146c   0x0800146c   0x0000004c   Code   RO          242    i.USART_NVIC_Configuration  usart.o
    0x080014b8   0x080014b8   0x0000000a   Code   RO          799    i.USART_ReceiveData  stm32f10x_usart.o
    0x080014c2   0x080014c2   0x00000008   Code   RO          802    i.USART_SendData    stm32f10x_usart.o
    0x080014ca   0x080014ca   0x00000004   Code   RO           79    i.UsageFault_Handler  stm32f10x_it.o
    0x080014ce   0x080014ce   0x00000002   PAD
    0x080014d0   0x080014d0   0x00000020   Code   RO         2003    i.__0printf         mc_w.l(printfa.o)
    0x080014f0   0x080014f0   0x0000000e   Code   RO         2087    i.__scatterload_copy  mc_w.l(handlers.o)
    0x080014fe   0x080014fe   0x00000002   Code   RO         2088    i.__scatterload_null  mc_w.l(handlers.o)
    0x08001500   0x08001500   0x0000000e   Code   RO         2089    i.__scatterload_zeroinit  mc_w.l(handlers.o)
    0x0800150e   0x0800150e   0x00000002   PAD
    0x08001510   0x08001510   0x00000184   Code   RO         2010    i._fp_digits        mc_w.l(printfa.o)
    0x08001694   0x08001694   0x000006dc   Code   RO         2011    i._printf_core      mc_w.l(printfa.o)
    0x08001d70   0x08001d70   0x00000024   Code   RO         2012    i._printf_post_padding  mc_w.l(printfa.o)
    0x08001d94   0x08001d94   0x0000002e   Code   RO         2013    i._printf_pre_padding  mc_w.l(printfa.o)
    0x08001dc2   0x08001dc2   0x00000002   PAD
    0x08001dc4   0x08001dc4   0x00000024   Code   RO          243    i.fputc             usart.o
    0x08001de8   0x08001de8   0x00000094   Code   RO            1    i.main              main.o
    0x08001e7c   0x08001e7c   0x00000004   PAD
    0x08001e80   0x08001e80   0x00000788   Data   RO          200    .constdata          adc.o
    0x08002608   0x08002608   0x00000020   Data   RO         2085    Region$$Table       anon$$obj.o


    Execution Region RW_IRAM1 (Exec base: 0x20000000, Load base: 0x08002628, Size: 0x00000420, Max: 0x00010000, ABSOLUTE)

    Exec Addr    Load Addr    Size         Type   Attr      Idx    E Section Name        Object

    0x20000000   0x08002628   0x00000004   Data   RW          170    .data               systick_delay.o
    0x20000004   0x0800262c   0x00000014   Data   RW          613    .data               stm32f10x_rcc.o
    0x20000018   0x08002640   0x00000004   Data   RW         2065    .data               mc_w.l(stdout.o)
    0x2000001c   0x08002644   0x00000004   PAD
    0x20000020        -       0x00000400   Zero   RW          286    STACK               startup_stm32f10x_md.o


==============================================================================

Image component sizes


      Code (inc. data)   RO Data    RW Data    ZI Data      Debug   Object Name

       932        142       1928          0          0       3855   adc.o
         0          0          0          0          0         32   core_cm3.o
       148         36          0          0          0     258274   main.o
       132         22          0          0          0       1467   misc.o
        36          8        236          0       1024        776   startup_stm32f10x_md.o
       416         10          0          0          0       8306   stm32f10x_adc.o
       278          0          0          0          0       1920   stm32f10x_gpio.o
        24          0          0          0          0       3260   stm32f10x_it.o
       244         26          0         20          0       3781   stm32f10x_rcc.o
       490          6          0          0          0       7141   stm32f10x_usart.o
       328         28          0          0          0       1785   system_stm32f10x.o
        52         12          0          4          0       1085   systick_delay.o
       292         22          0          0          0       2154   usart.o

    ----------------------------------------------------------------------
      3384        316       2196         24       1024     293836   Object Totals
         0          0         32          0          0          0   (incl. Generated)
        12          4          0          0          0          0   (incl. Padding)

    ----------------------------------------------------------------------

      Code (inc. data)   RO Data    RW Data    ZI Data      Debug   Library Member Name

         0          0          0          0          0          0   entry.o
         0          0          0          0          0          0   entry10a.o
         0          0          0          0          0          0   entry11a.o
         8          4          0          0          0          0   entry2.o
         4          0          0          0          0          0   entry5.o
         0          0          0          0          0          0   entry7b.o
         0          0          0          0          0          0   entry8b.o
         8          4          0          0          0          0   entry9a.o
        30          0          0          0          0          0   handlers.o
        36          8          0          0          0         68   init.o
         0          0          0          0          0          0   iusefp.o
        30          0          0          0          0         68   llshl.o
        36          0          0          0          0         68   llsshr.o
        32          0          0          0          0         68   llushr.o
      2258         90          0          0          0        452   printfa.o
         0          0          0          4          0          0   stdout.o
        44          0          0          0          0         80   uidiv.o
        98          0          0          0          0         92   uldiv.o
        48          0          0          0          0         68   cdcmple.o
        48          0          0          0          0         68   cdrcmple.o
       334          0          0          0          0        148   dadd.o
       222          0          0          0          0        100   ddiv.o
       186          0          0          0          0        176   depilogue.o
        48          0          0          0          0         68   dfixul.o
        26          0          0          0          0         76   dfltui.o
       228          0          0          0          0         96   dmul.o
        38          0          0          0          0         68   f2d.o
       176          0          0          0          0        140   fadd.o
       124          0          0          0          0         88   fdiv.o
       110          0          0          0          0        168   fepilogue.o
        10          0          0          0          0         68   ffltui.o

    ----------------------------------------------------------------------
      4188        106          0          4          4       2228   Library Totals
         6          0          0          0          4          0   (incl. Padding)

    ----------------------------------------------------------------------

      Code (inc. data)   RO Data    RW Data    ZI Data      Debug   Library Name

      2584        106          0          4          0        896   mc_w.l
      1598          0          0          0          0       1332   mf_w.l

    ----------------------------------------------------------------------
      4188        106          0          4          4       2228   Library Totals

    ----------------------------------------------------------------------

==============================================================================


      Code (inc. data)   RO Data    RW Data    ZI Data      Debug   

      7572        422       2196         28       1028     292784   Grand Totals
      7572        422       2196         28       1028     292784   ELF Image Totals
      7572        422       2196         28          0          0   ROM Totals

==============================================================================

    Total RO  Size (Code + RO Data)                 9768 (   9.54kB)
    Total RW  Size (RW Data + ZI Data)              1056 (   1.03kB)
    Total ROM Size (Code + RO Data + RW Data)       9796 (   9.57kB)

==============================================================================

