:020000040800F2
:100000002004002001010008FF0D0008F70D000882
:10001000FB0D00082D0C0008CB14000800000000A8
:100020000000000000000000000000007D1000083B
:10003000C10C000800000000850E000869110008CE
:100040001B0100081B0100081B0100081B01000820
:100050001B0100081B0100081B0100081B01000810
:100060001B0100081B0100081B0100081B01000800
:100070001B0100081B0100081B0100081B010008F0
:100080001B0100081B010008790800081B0100087B
:100090001B0100081B0100081B0100081B010008D0
:1000A0001B0100081B0100081B0100081B010008C0
:1000B0001B0100081B0100081B0100081B010008B0
:1000C0001B0100081B0100081B0100081B010008A0
:1000D0001B010008591200081B0100081B01000841
:1000E0001B0100081B0100081B010008DFF80CD0F1
:1000F00000F0A0FB00480047E91D00082004002094
:100100000648804706480047FEE7FEE7FEE7FEE7B1
:10011000FEE7FEE7FEE7FEE7FEE7FEE781110008E7
:10012000ED000008F0B480EA0102D40F4200B2EB07
:10013000410F02D20246084611464A0042D0C30D82
:10014000DDB2C1F3C752AD1A202D35DAC1F3160165
:1001500041F4000204B15242C5F1200602FA06F150
:100160002A411044B3EBD05F23D0C4B1012DA0EBE2
:10017000C35009DCF0BC4FF0004202EAC352DBB2CC
:1001800000F5000000F0B3BA400000F1807000EB11
:10019000C350A0F1807040EAD170490009E04908DD
:1001A00041EAC071A0EBC35000F50000400800EB2D
:1001B000C350F0BC00F092BA6142012202EB41014F
:1001C000001BF6E7F0BC704781F00041AAE780F021
:1001D0000040A7E730B480EA010202F0004530F0A9
:1001E000004221F0004013D090B1C30DD40DC2F3F2
:1001F0001601C0F31600E41A41F4000140F40002B5
:100200007D34914201D3641C00E04900002C02DAE5
:1002100030BC002070474FF400000023914201D30E
:10022000891A034340084FEA4101F7D151B1914285
:1002300002D14FF0004105E002D24FF0010101E090
:100240006FF0010103EBC450284430BC00F046BA03
:100250002DE9FE4F804681EA0300C00F0C46009056
:1002600021F0004123F00045B8EB0200A94105D27E
:100270004046214690461C460B46024623F000406D
:10028000104347D0270DC7F30A00C3F30A51029069
:10029000401A019040286BDAC3F3130040F4801B2E
:1002A0000098924620B10023D2EB030A63EB0B0BBC
:1002B00001985946C0F14002504600F0EEF906465A
:1002C0000D4650465946019A00F0F6F910EB080029
:1002D0006141002487EA115284EAE7731A4340D04F
:1002E000009A62B3019A012A4FEA075215DC001BFB
:1002F00061EB02014FF0004202EA0752CDE90042F1
:10030000001C41F5801132462B4600F02DFA03B057
:10031000BDE8F08F40462146F9E7001B61EB020182
:10032000001C41F5801300185B412018A2F500174E
:1003300047EB030140EAD570B6196D4111E06D0835
:100340004FEA360645EAC0754FEA0752001B61EBDB
:100350000201001C41F5801149084FEA30000019E4
:10036000514132462B4603B0BDE8F04F00F0EDB9E5
:100370000098012240000023D0EB020263EBE073FF
:10038000009821464FEAE074B8EB000061EB0401ED
:10039000E9E783F000435BE781F0004158E72DE98E
:1003A000FE4F81EA030404F0004421F00041009470
:1003B0004FF0000B23F0004350EA01045ED052EAF4
:1003C00003045BD0C3F30A54C1F30A552C44A4F2CE
:1003D000F3340194A0FB0254C1F3130141F48011E2
:1003E000C3F3130343F4801301FB024400FB034EE9
:1003F000840A970A44EA815447EA8357A4FB0768B2
:1004000002958D0A05FB07854FEA932C04FB0C54DB
:100410002705029D4FEA065847EA1637B5EB08054F
:100420006EEB070C870E920E47EA811742EA8312A1
:10043000A7FB0201B6EB0B0164EB00042B0D43EAB2
:100440000C335E1844EB1C50DA465146E7FB0201C0
:10045000C5F313044FEA0B3343EA14534FEA043253
:10046000019C43EA0603A4F10C040294009CCDE92C
:1004700000B400F079F903B0BDE8F08F0020014628
:10048000F9E72DE9F04D81EA030404F0004B21F077
:10049000004514464FF0000A23F0004150EA0502DF
:1004A00020D054EA01021DD0C5F30A570246C5F315
:1004B0001303C1F31300C1F30A5640F4801543F44B
:1004C0008013A7EB0608101BD64608F2FD3873EB25
:1004D000050002D308F1010801E092185B41B8F170
:1004E000000F03DA00200146BDE8F08D00204FF434
:1004F0008011064684460EE0171B73EB050705D3F3
:10050000121B63EB050306434CEA010C49084FEA52
:10051000300092185B4150EA0107EDD152EA030026
:1005200012D082EA040083EA0501084305D0101BBB
:10053000AB4106D20122002306E000224FF0004327
:1005400002E06FF0010253101AEB06004CEB085169
:1005500010EB0A0041EB0B01BDE8F04D00F0F5B8DF
:1005600096230022114600F0C2B80EB540F2334186
:1005700002910021CDE900110A460B4600F0F4F883
:1005800003B000BD00F0004230F000400AD0C10DC1
:1005900001F56071C0F3160042EA0151C20840073C
:1005A00011437047002001467047000030B5041E1B
:1005B00071F1000404DB4FF00044404264EB0101A0
:1005C000141E73F1000405DB1C464FF00043524239
:1005D00063EB04038B4208BF824230BD30B5041E7A
:1005E00071F1000404DB4FF00044404264EB010170
:1005F000141E73F1000405DB1C464FF00043524209
:1006000063EB0403994208BF904230BD30B50B46FE
:10061000014600202022012409E021FA02F59D4232
:1006200005D303FA02F5491B04FA02F52844151E06
:10063000A2F10102F1DC30BD2DE9F05F054600209A
:1006400092469B4688460646814640241BE0284643
:1006500041464746224600F0FFF853465A46C01A24
:10066000914110D311461846224600F016F82D1A73
:1006700067EB01084F4622460120002100F00DF8EB
:1006800017EB00094E41201EA4F10104DFDC4846AF
:1006900031462A464346BDE8F09F202A04DB203A33
:1006A00000FA02F1002070479140C2F1200320FAC5
:1006B00003F3194390407047202A06DBCB17203AFA
:1006C00041FA02F043EAE07306E041FA02F3D04057
:1006D000C2F1200291400843194670470029A8BF83
:1006E0007047401C490008BF20F00100704710B45B
:1006F000B0FA80FC00FA0CF050EA010404BF10BC10
:10070000704749B1CCF1200421FA04F411FA0CF13C
:1007100018BF012121430843A3EB0C01CB1D4FEA75
:1007200000614FEA102042BF002010BC704700EB70
:10073000C35010440029A4BF10BC7047401C49009E
:1007400008BF20F0010010BC704710B5141E73F1F3
:10075000000408DA401C41F1000192185B411A4381
:1007600001D120F0010010BD2DE9F04D92469B46CD
:1007700011B1B1FA81F202E0B0FA80F22032904673
:10078000FFF78BFF04460F4640EA0A0041EA0B01DF
:1007900053465A46084313D0114653EA010019D074
:1007A000C8F14002504600F057F805460E46504644
:1007B00059464246FFF771FF084305D0012004E087
:1007C00020463946BDE8F08D0020054346EAE07634
:1007D0002C4337430A986305E40AA0EB0800002283
:1007E000FD0A44EA47540A3002D500200146E9E7F1
:1007F000010510196941DDE9084500196941BDE8A5
:10080000F04DA2E7C1F30A52C1F3130140F2FF33E6
:1008100041F480119A4202DA00200146704740F20A
:1008200033439A42A2F2334202DC524200F014B83F
:10083000FFF733BF064C074D06E0E06840F00103C8
:1008400094E8070098471034AC42F6D3FFF752FC07
:100850000826000828260008202A04DB203A21FA6E
:1008600002F00021704721FA02F3D040C2F12002C9
:100870009140084319467047704721B1826842F0A1
:100880000102826003E0826822F001028260704708
:1008900000B587B0012140F2116000F0F5FA102098
:1008A000ADF8040000208DF8070001A93E4800F0D3
:1008B00017FA0020029001208DF80C008DF80D0031
:1008C0004FF4602004900020059001208DF818005E
:1008D00002A9364800F09AF8072301220E21334876
:1008E00000F0BCF80021314800F064F801212F48E5
:1008F000FFF7C3FF2D4800F00DF900BF2B4800F0B3
:100900007BF80028FAD1294800F014F900BF2748E5
:1009100000F05BF80028FAD10121244800F0FFF82C
:100920002020ADF8040000208DF8070001A91E4822
:1009300000F0D6F90020029001208DF80C008DF80F
:100940000D004FF4602004900020059001208DF8E8
:10095000180002A9164800F059F8072301220F21B8
:10096000134800F07BF80021114800F023F8012122
:100970000F48FFF782FF0E4800F0CCF800BF0C488C
:1009800000F03AF80028FAD1094800F0D3F800BF87
:10099000074800F01AF80028FAD10121044800F0B5
:1009A000BEF807B000BD0000001001400024014067
:1009B0000028014021B1826842F48072826003E025
:1009C000826822F4807282607047014600208A6843
:1009D00002F004020AB1012000E000207047014645
:1009E000C86C80B270470246002013680B400BB100
:1009F000012000E000207047014600208A6802F0D4
:100A000008020AB1012000E00020704730B502461C
:100A10000020002350680F4C20400D790C6844EAF8
:100A200005242043506090680B4C2040D1E90254CB
:100A30002C434D7944EA450420439060D06A20F469
:100A400070000C7C641EE4B2234340EA0350D06281
:100A500030BD0000FFFEF0FFFDF7F1FFF0B50446EA
:100A60000D4600200021092D11DDE068A5F10A06E0
:100A700006EB4607072606FA07F18843A5F10A06A2
:100A800006EB460603FA06F10843E0600CE0206935
:100A900005EB4507072606FA07F1884305EB4506EF
:100AA00003FA06F108432061072A0FDA606B561E2D
:100AB00006EB86071F2606FA07F18843561E06EB4B
:100AC000860605FA06F10843606322E00D2A0FDA74
:100AD000206BD61F06EB86071F2606FA07F1884310
:100AE000D61F06EB860605FA06F10843206310E0E0
:100AF000E06AA2F10D0606EB86071F2606FA07F14B
:100B00008843A2F10D0606EB860605FA06F10843B6
:100B1000E062F0BD816841F008018160704721B159
:100B2000826842F4A002826003E0826822F4A0029C
:100B300082607047816841F00401816070472DE94F
:100B4000F05F05460E46144699464FF0000BD4E977
:100B500000733A4628463146FFF740FD02D2002096
:100B6000BDE8F09F04EBC900D0E900733A4628467F
:100B70003146FFF71BFD02D209F10100F0E751E019
:100B80000BEB090000EBD0714FEA610A04EBCA00DD
:100B9000D0E900733A4628463146FFF707FD19D2DF
:100BA0000AF1010B04EBCB00D0E900733A4628466A
:100BB0003146FFF713FD01D25046D1E704EBCB01DC
:100BC000D1E900733A4628463146FFF7EFFC29D1B8
:100BD0005846C5E704EBCA01D1E900733A462846F6
:100BE0003146FFF7FBFC1BD2AAF1010000F0FF0920
:100BF00004EBC900D0E900733A4628463146FFF7B6
:100C0000D5FC01D25046ABE704EBC900D0E9007334
:100C10003A4628463146FFF7C9FC03D148469FE7CC
:100C200050469DE7CB45ABDB504699E700BFFEE75A
:100C300070B504460D461646002213462046294646
:100C4000FFF7B4FC05D131460AA000F041FC0020BA
:100C500070BD4FF066320E4B20462946FFF7A6FCCA
:100C600005D131460BA000F033FC0020F0E7012055
:100C7000EEE700004572726F723A4E54435F25648E
:100C80004BB4ABB8D0C6F7B6CCC2B7A3A10A00002C
:100C900066660A404572726F723A4E54435F25642D
:100CA0004BB4ABB8D0C6F7CEB4C1ACBDD3BBF2B475
:100CB000AEC1AAB5E7D7E8B6CCC2B7A3A10A000077
:100CC000704700004FF47A714143044A116000BF3D
:100CD000024909680029FBD170470000000000208C
:100CE0002DE9F041024600250026002000230024C3
:100CF000002791F803C00CF00F0591F803C00CF029
:100D0000100CBCF1000F03D091F802C04CEA0505AD
:100D100091F800C0BCF1000F31D0146800202BE026
:100D20004FF0010C0CFA00F3B1F800C00CEA030616
:100D30009E4220D183004FF00F0C0CFA03F7BC4306
:100D400005FA03FC4CEA040491F803C0BCF1280F37
:100D500006D14FF0010C0CFA00FCC2F814C00AE0F6
:100D600091F803C0BCF1480F05D14FF0010C0CFA0B
:100D700000FCC2F810C0401C0828D1D31460B1F8A0
:100D800000C0BCF1FF0F34DD546800202EE000F1FC
:100D9000080C4FF0010808FA0CF3B1F800C00CEA97
:100DA00003069E4221D183004FF00F0C0CFA03F78B
:100DB000BC4305FA03FC4CEA040491F803C0BCF1FF
:100DC000280F05D100F1080C08FA0CF8C2F81480BD
:100DD00091F803C0BCF1480F07D100F1080C4FF0A7
:100DE000010808FA0CF8C2F81080401C0828CED37D
:100DF0005460BDE8F08100BFFEE700BFFEE770472A
:100E000070B5002100230F22C47804B3154C246868
:100E100004F4E064C4F5E064210AC1F10403CA40AB
:100E2000447804FA03F184781440214309010E4CFC
:100E30000678A155047804F01F050124AC4005781C
:100E40006D11AD0005F1E025C5F8004109E0047819
:100E500004F01F050124AC40044D0678761145F8D6
:100E6000264070BD0CED00E000E400E080E100E011
:100E700002490143024A1160704700000000FA0570
:100E80000CED00E07047000029B1064A9269024368
:100E9000044B9A6104E0034A92698243014B9A61D0
:100EA000704700000010024030B5002100220024ED
:100EB00000232D4D6D6805F00C0121B1042905D0EA
:100EC000082923D105E0294D056022E0274D056062
:100ED0001FE0254D6D6805F47012234D6D6805F413
:100EE0008034022505EB92421CB9214D5543056023
:100EF0000BE01D4D6D6805F400351DB11C4D5543CB
:100F0000056002E0194D5543056002E0174D05608C
:100F100000BF00BF144D6D6805F0F0010909154DC3
:100F20006B5C0568DD4045600F4D6D6805F4E06160
:100F3000090A104D6B5C4568DD4085600A4D6D689F
:100F400005F46051C90A0B4D6B5C4568DD40C56016
:100F5000054D6D6805F44041890B074D6B5CC56814
:100F6000B5FBF3F5056130BD0010024000127A00B8
:100F700000093D0004000020140000202DE9FE4F70
:100F8000072301220E213148FFF768FD01212F4878
:100F9000FFF7C5FD00BF02212C48FFF724FD002804
:100FA000F9D02A48FFF71BFD02900298FFF7DDFAFF
:100FB00080464FF06632264BFFF7F1F90022254BB1
:100FC000CDE90001FFF75DFA04460D460A222046EE
:100FD0002946FFF72DFE08B9BDE8FE8F22462B46B5
:100FE0004FF066301A49FFF7D4F980468946224609
:100FF0002B4600201849FFF7D2F942464B46CDE96F
:101000000001FFF73EFA06460F46F023134A30462A
:101010003946FFF794FD00F0FF0B5846FFF7A0FAA2
:1010200081460F49FFF7D0F880464FF08041FFF727
:10103000D1F882465046FFF7A5FA804642460B4655
:1010400008A000F045FA00BFC6E7000000240140F8
:1010500066660A4000FEAF4000002440801E000883
:10106000000020424E54435F31304BCEC2B6C8A37D
:10107000BA25302E3166A1E6A1A30A00704710B54B
:1010800000F002F810BD00000CB5002001900090A7
:101090003348006840F480303149086000BF304870
:1010A000006800F4003000900198401C0190009806
:1010B00018B90198B0F5A06FF1D12948006800F483
:1010C000003010B10120009001E000200090009855
:1010D000012843D12348006840F0100021490860EE
:1010E0000846006820F0030008600846006840F0E9
:1010F000020008601A48406819494860084640687C
:1011000048600846406840F480604860084640688F
:1011100020F47C1048600846406840F4E8104860BD
:101120000846006840F08070086000BF0C48006806
:1011300000F000700028F9D00948406820F0030052
:10114000074948600846406840F00200486000BF18
:101150000348406800F00C000828F9D10CBD0000DD
:1011600000100240002002400448006820B10348FB
:101170000068401E01490860704700000000002020
:1011800010B51348006840F0010011490860084696
:101190004068104908400E494860084600680E49FA
:1011A00008400B4908600846006820F48020086069
:1011B0000846406820F4FE0048604FF41F00886035
:1011C000FFF75DFF4FF000600449086010BD0000AC
:1011D000001002400000FFF8FFFFF6FE08ED00E0FF
:1011E00010B586B00446012144F20400FFF74CFE1E
:1011F0004FF40070ADF8140003208DF8160018208D
:101200008DF8170005A91248FFF76AFD4FF48060BA
:10121000ADF8140004208DF8170005A90C48FFF75D
:101220005FFD01940020ADF80800ADF80A00ADF8AC
:101230000C00ADF810000C20ADF80E0001A9054817
:1012400000F0A8F80121034800F03CF806B010BDFA
:10125000000801400038014010B540F225510C480B
:1012600000F049F838B140F22551094800F01BF868
:10127000074800F021F90821054800F02FF830B1A7
:101280000821034800F006F8014800F015F910BDE8
:101290000038014001F40072B2F5007F00D100BFB8
:1012A000CA430280704710B50022002340F66A143A
:1012B000A14200D100BF0A1201249440A3B2DC4332
:1012C000048010BD21B1828942F40052828104E081
:1012D00082894DF6FF731A408281704702460020D2
:1012E000B1F5007F00D100BF13880B400BB1012086
:1012F00000E00020704770B502460024002300255E
:10130000002040F66A16B14200D100BFC1F3421579
:1013100001F01F03012606FA03F3012D02D196897D
:10132000334006E0022D02D1168A334001E0968A4E
:1013300033400C12012606FA04F41688344013B127
:101340000CB1012000E0002070BDF0B50346002480
:1013500000260025002040F66A17B94200D100BFE0
:101360001846C1F3421401F01F06012707FA06F5DB
:10137000012C01D10C3004E0022C01D1103000E02E
:1013800014301AB107682F43076002E00768AF43C3
:101390000760F0BD2DE9F04786B005460E460024F3
:1013A000A24600BFA1460027B08900B100BF2F466A
:1013B0002C8A4CF6FF700440F08804432C82AC89E0
:1013C0004EF6F3100440B088318908437189084310
:1013D0000443AC81AC8A4FF6FF400440B08904431B
:1013E000AC8201A8FFF760FD1F48874202D1DDF8FB
:1013F00010A001E0DDF80CA0A88900F4004040B185
:101400000AEBCA0000EB0A1031684900B0FBF1F8A2
:1014100007E00AEBCA0000EB0A1031688900B0FB54
:10142000F1F86420B8FBF0F004012009642101FB0D
:101430001089A88900F4004040B1322000EBC900B7
:10144000B0FBF1F000F00700044308E0322000EBAD
:1014500009106421B0FBF1F000F00F0004432C816F
:1014600006B0BDE8F08700000038014008B54FF431
:101470004070FFF7FDFC25208DF8000000208DF85E
:1014800001008DF8020001208DF803006846FFF787
:10149000B7FC40F225510748FFF7FCFE4021054804
:1014A000FFF7F8FE012240F225510248FFF74DFFF9
:1014B00008BD00000038014001468888C0F30800DC
:1014C0007047C1F308028280704700BFFEE700004A
:1014D0000FB4054B10B503A9044A029800F0DAF8DE
:1014E00010BC5DF814FB0000C51D000818000020AA
:1014F00002E008C8121F08C1002AFAD170477047DD
:10150000002001E001C1121F002AFBD1704700003A
:101510002DE9FF5F82B00021DDE90430020DDDF826
:1015200040B0034318D044F61050A2F2FF324243B9
:101530001514119801281FD0A5EB0B00401C5FEA81
:10154000000A4FF000064E4FDFF83891B046504683
:1015500015D5CAF1000413E0119801244AA301280B
:1015600001D16FEA0B010298119AC0E90031C0E97C
:10157000024206B0BDE8F09FCBF10000DFE7044671
:101580000021404A491842EB0450CDE9001012E016
:10159000E00707D032463B4640464946FEF7FFFE8D
:1015A0008046894632463B4610461946FEF7F7FE0E
:1015B00006460F466410002CEAD1DDE90401DDE99E
:1015C0000023BAF1000F06DAFEF7E9FE42464B4669
:1015D000FEF7E5FE05E0FEF754FF42464B46FEF7F8
:1015E00050FF04460E460022284BFEF7F7FF03D8B3
:1015F0004FF0FF30014607E00022254B20463146E0
:10160000FEF726FEFFF7FEF8102409E0002C0ADBA7
:101610000A220023FFF710F8039B30321A55641E8C
:1016200050EA0102F2D1641C039AC4F1110314447C
:10163000119A012A03D0012208430DD10AE0084380
:1016400004D000204FF0110B119072E7A3EB0B05B3
:101650006D1E0DE05B4504DD4FF0000205F1010554
:1016600004E003DA4FF00002A5F10105002AECD0F6
:1016700002981199C0E90231C0E9004579E70000FC
:10168000000014400000F03F300000000000F04374
:101690000000E03F2DE9FF4F95B09B468946064686
:1016A00000250FE2252877D100242746F84A01219A
:1016B000059400E0044316F8013F203B01FA03F0D3
:1016C0001042F7D130782A2811D06FF02F033078EC
:1016D000A0F13002092A16D8059A44F0020402EB60
:1016E000820203EB42021044761C0590EFE759F8A2
:1016F000042B0592002A03DA504244F4005405906A
:1017000044F00204761C30782E2816D116F8010F0A
:1017100044F004042A280DD06FF02F023078A0F195
:101720003003092B09D807EB870302EB4303C718E3
:10173000761CF3E759F8047B761C30786C280FD0C0
:1017400006DC4C2817D068280DD06A2814D104E094
:10175000742810D07A280FD10DE044F400140AE068
:1017600044F4801401E044F440147278824202D1BF
:1017700004F58014761C761C307866280BD013DCB8
:10178000582877D009DC002875D04528F6D046289F
:10179000F4D047281AD19DE118E0632835D0642899
:1017A00079D0652812D195E1702873D008DC6728BC
:1017B000F1D069286FD06E280DD06F2806D1B5E022
:1017C00073282CD0752875D0782874D05A4617996C
:1017D00090476D1C75E1C4F30250022809D003281C
:1017E0000DD0D9F8001004280DD00D6009F10409BE
:1017F00067E1D9F80010EA17C1E90052F6E7D9F815
:1018000000100D80F2E70D70F0E719F8041B8DF859
:10181000001000208DF80100EA46012003E059F88D
:1018200004AB4FF0FF3061074FF0000102D40DE030
:1018300008F101018846B9420FDA8045F8DB1AF851
:1018400008100029F4D108E008F10101884681421E
:10185000FADB1AF808100029F6D105985B46A0EBD0
:10186000080721463846179A00F094FA284400EBFE
:10187000080507E04DE029E10DE01AF8010B5A4692
:1018800017999047B8F10108F7D25B4621463846D0
:10189000179A13E142E00A220092C4F302524FF079
:1018A000000A022A08D059F804CB032A4FEAEC7147
:1018B0000AD00DE029E02AE009F1070121F0070232
:1018C000F2E802C1914609E00FFA8CFC4FEAEC7194
:1018D000042A03D14FFA8CFC4FEAEC71002907DA95
:1018E0000A460021DCF1000C61EB02012D2202E02E
:1018F000220504D52B228DF80420012203E0E20703
:1019000001D02022F7E7904659E00A2102E0102298
:101910000DE010214FF0000A00910BE010224FF073
:10192000000A44F004040827009203E008224FF064
:10193000000A0092C4F30252022A05D059F804CBDF
:101940000021032A08D009E009F1070121F007026C
:10195000F2E802C1914605E01FFA8CFC042A01D18D
:101960000CF0FF0C4FF00008220728D5702806D095
:10197000009B83F0100353EA0A0305D00EE04022D7
:101980008DF80420012208E05CEA010206D0302232
:101990008DF804208DF8050002229046009B83F00C
:1019A000080353EA0A030AD15CEA010201D1620783
:1019B00005D530228DF804204FF001087F1E5828ED
:1019C00004D034A003900EA802900DE036A0F9E7F1
:1019D00053466046009AFEF72FFE84460398825CC9
:1019E0000298401E029002705CEA0100F0D1029859
:1019F00006A9081A00F1200A600702D524F48034F1
:101A000000E00127574502DDA7EB0A0000E00020B7
:101A100000EB0A01009005984144401A0590E0034C
:101A200006D45B462146179A059800F0B3F90544A1
:101A3000002706E001A85A46C05D179990476D1C23
:101A40007F1C4745F6DBE0030CD55B462146179A21
:101A5000059800F09FF9054404E030205A46179994
:101A600090476D1C0099481E00900029F5DC08E0A5
:101A7000029802995A460078491C0291179990479A
:101A80006D1CBAF10001AAF1010AF1DC65E1000068
:101A90000928010030313233343536373839616244
:101AA0006364656600000000303132333435363708
:101AB00038394142434445460000000000F058F9DF
:101AC0000544761C307800287FF4ECAD19B0284628
:101AD000BDE8F08F620700D4062709F1070222F063
:101AE000070CFCE80223E14603F000485FEA080C1B
:101AF00002D00FF2702C0DE05FEA045C02D50FF209
:101B0000682C07E05FEAC47C02D00FF2602C01E091
:101B1000AFF2700C4FF0FF3823F00043CDF850C007
:101B200065280CD006DC452809D046281DD047285A
:101B30003DD13DE0662818D067287ED138E00021ED
:101B4000112F01DB112000E0781CCDE9000106A96E
:101B50000EA8FFF7DDFCDDE90F010E9A03910021CD
:101B6000009207F1010A04914DE04FF00040009708
:101B7000CDE9011006A90EA8FFF7CAFCDDE90F02A6
:101B800003920E9B11990022DDF80CA000930492A1
:101B900011B9791C00EB010AB7EB0A0004D4C0F1BB
:101BA000FF3007F1010A0490AAEB0700019044E01E
:101BB000012F00DA01270021112F01DD112000E0A3
:101BC0003846CDE9000106A90EA8FFF7A1FCDDE922
:101BD0000F010E9A0391002104910092BA46210749
:101BE0000CD40399514500DA8A46BAF1010F05DD9C
:101BF000009AAAF10101515C302908D0B84202DAFA
:101C000010F1040F06DA0121CDE9011015E0AAF167
:101C10000101E9E7002805DC049901440491AAEBDD
:101C2000000102E0411C514500DD8A460499401A3A
:101C3000401C01904FF000400290200704D401980E
:101C4000504501DBCDF8048000208DF84F0002984C
:101C50000DF14F07B0F1004F25D02B200E900298C8
:101C60004FF0020800280CDA404202902D200E901E
:101C700007E00A210298FEF7C9FC3031029007F80C
:101C8000011DB8F10001A8F10108F2DC029800285A
:101C9000EFD1791E0E980870307800F0200040F0E7
:101CA000450007F8020D12A8C01B00F107081498A0
:101CB000007800B1012000EB0A01019801EBE0710E
:101CC00005984144401A401E0590E00306D45B4647
:101CD0002146179A059800F05DF80544149800789D
:101CE00018B15A46179990476D1CE00324D55B46FE
:101CF0002146179A059800F04DF805441CE0049819
:101D0000002807DBDDE90301884203DD0098405C21
:101D1000179901E0179930205A469047049805F129
:101D20000105401C04900198401E019004D12E2012
:101D30005A46179990476D1CBAF10001AAF1010AA1
:101D4000DDDC05E017F8010B5A46179990476D1C2A
:101D5000B8F10001A8F10108F4DC5B462146179AAE
:101D60000598ABE62D0000002B00000020000000CD
:101D70002DE9F041044600251E461746880404D488
:101D800005E039462020B0476D1C641EF9D5284671
:101D9000BDE8F0812DE9F041044600251E4690463D
:101DA000C80301D5302700E02027880404D505E0CA
:101DB00041463846B0476D1C641EF9D52846BDE83B
:101DC000F081000070B504460D4600BF8021054833
:101DD000FFF784FA0028F9D0E1B20248FFF771FB5F
:101DE000204670BD00380140FFF7CAF94821B1F123
:101DF000807F00D31DE021F07F40401E4FF0E022A5
:101E0000506150170F22002807DA13071D0E124BDE
:101E100000F00F04241F1D5503E013071C0E0F4B89
:101E20001C5400BF00204FF0E02290610720106199
:101E300000BF4FF4E130FFF7D3F9FFF717FBFEF7D0
:101E400027FD07A0FFF744FB05E0FFF797F84FF4E5
:101E50007A70FEF737FFF8E718ED00E000E400E0E5
:101E60004E54435F31304B2F35304BCEC2B6C8B4E1
:101E7000ABB8D0C6F7A1A30A000000000000000024
:101E800021B0726891D55740925CFE43FA295740C1
:101E9000C1CAA145B6835640ED0DBE3099E255400A
:101EA000A60A4625754655409031772D21AF5440FE
:101EB0009CC420B0721C54406E3480B7408E534096
:101EC00071AC8BDB68045340499D8026C27E524032
:101ED0001361C3D32BFD514088F4DBD7817F514080
:101EE000C4B12E6EA3055140E5F21FD26F8F504052
:101EF0001B9E5E29CB1C5040091B9E5E295B4F40F8
:101F0000A54E401361834E406EA301BC05B24D4007
:101F10002D431CEBE2E64C400BB5A679C7214C40A3
:101F20006DC5FEB27B624B40E25817B7D1A84A405C
:101F30005BB1BFEC9EF4494004560E2DB2454940BA
:101F4000CE88D2DEE09B484010E9B7AF03F74740A8
:101F5000BBB88D06F056474088F4DBD781BB4640BE
:101F60006ADE718A8E2446407DD0B359F591454092
:101F70007AC7293A92034540FE43FAEDEB78444094
:101F8000A52C431CEBF24340AAF1D24D62704340B2
:101F9000D3DEE00B93F14240D8F0F44A5976424048
:101FA000029A081B9EFE41406E3480B7408A414031
:101FB000FED478E9261941405E4BC8073DAB40404E
:101FC000AAF1D24D624040401B2FDD2406B13F40B4
:101FD0009E5E29CB10E73E40A69BC420B0223E4027
:101FE00088855AD3BC633D4060764F1E16AA3C409C
:101FF0002FDD240681F53B40D9CEF753E3453B4026
:10200000B3EA73B5159B3A404D158C4AEAF4394052
:102010004F1E166A4D533940832F4CA60AB63840DE
:10202000931804560E1D3840D578E926318837407C
:1020300065AA605452F7364027C286A7576A3640D1
:10204000FED478E926E13540083D9B559F5B35403D
:10205000280F0BB5A6D934407AA52C431C5B34401D
:10206000ABCFD556ECDF3340645DDC4603683340CC
:10207000C1A8A44E40F33240A8C64B3789813240F4
:10208000894160E5D0123240492EFF21FDA6314042
:10209000925CFE43FA3D31400F9C33A2B4D73040EE
:1020A000A301BC0512743040C217265305133040FB
:1020B0009BE61DA7E8682F40713D0AD7A3B02E40CC
:1020C000E9482EFF21FD2D4058A835CD3B4E2D402F
:1020D00088855AD3BCA32C4076E09C11A5FD2B40EB
:1020E000EBE2361AC05B2B40CBA145B6F3BD2A40CC
:1020F0006ABC749318242A40CA32C4B12E8E294077
:10210000B22E6EA301FC284005C58F31776D2840A3
:10211000C3F5285C8FE227402575029A085B2740AB
:10212000BBB88D06F0D626404BEA04341156264043
:10213000D50968226CD825403D2CD49AE65D25400F
:10214000D8F0F44A59E62440A857CA32C471244052
:102150000000000000002440E2E995B20C91234009
:10216000A2B437F8C22423404260E5D022BB22400B
:10217000A301BC0512542240ACADD85F76EF2140DC
:102180005A643BDF4F8D2140933A014D842D21400D
:10219000C7BAB88D06D02040696FF085C974204059
:1021A0005D6DC5FEB21B2040287E8CB96B891F4037
:1021B0001DC9E53FA4DF1E4060E5D022DB391E408B
:1021C000F2D24D6210981D4099BB96900FFA1C40B8
:1021D00039B4C876BE5F1C40B7D100DE02C91B40CF
:1021E00012143FC6DC351B4012A5BDC117A61A400C
:1021F000B6847CD0B3191A40E3C798BB96901940B7
:102200007B832F4CA60A194064CC5D4BC8871840CD
:1022100080B74082E2071840EC2FBB270F8B174096
:1022200054742497FF101740B6847CD0B39916409D
:102230001361C3D32B2516404F1E166A4DB31540AC
:102240004ED1915CFE431540107A36AB3ED7144018
:10225000772D211FF46C144069006F810405144030
:10226000E5F21FD26F9F1340EA043411363C13404D
:102270004260E5D022DB1240EA043411367C124081
:10228000E5F21FD26F1F1240143FC6DCB5C41140E7
:102290005DFE43FAED6B1140DA1B7C613215114093
:1022A00055C1A8A44EC01040E8D9ACFA5C6D1040EE
:1022B0005C8FC2F5281C10409A99999999990F4002
:1022C0003C4ED1915CFE0E406666666666660E40C8
:1022D00052B81E85EBD10D408D976E1283400D4094
:1022E0001904560E2DB20C40F4FDD478E9260C40AA
:1022F0001F85EB51B89E0B409A99999999190B40FB
:10230000F38E537424970A40643BDF4F8D170A40C5
:10231000B4C876BE9F9A0940E3361AC05B200940D4
:10232000F085C954C1A80840A4DFBE0E9C33084004
:10233000FE43FAEDEBC00740FFB27BF2B05007401E
:10234000A52C431CEBE206408104C58F3177064083
:1023500004E78C28ED0D0640F4FDD478E9A605408D
:102360001973D712F2410540744694F606DF044013
:1023700003780B24287E0440C8073D9B551F04406A
:10238000C3F5285C8FC203408195438B6C67034083
:1023900075931804560E03406519E25817B70240AA
:1023A0005227A089B061024004E78C28ED0D02405D
:1023B0007958A835CDBB0140EC51B81E856B014062
:1023C000E9263108AC1C0140ACADD85F76CF0040A7
:1023D00032E6AE25E483004044FAEDEBC03900401C
:1023E0003480B74082E2FF3F8716D9CEF753FF3FD4
:1023F00062105839B4C8FE3FE4141DC9E53FFE3FE2
:102400007DD0B359F5B9FD3FBC96900F7A36FD3FAC
:1024100012143FC6DCB5FC3F0F9C33A2B437FC3F1F
:10242000B22E6EA301BCFB3F8A1F63EE5A42FB3FF4
:102430007AC7293A92CBFA3F9FCDAACFD556FA3F19
:102440006ADE718A8EE4F93FDBF97E6ABC74F93F7B
:1024500011C7BAB88D06F93FED9E3C2CD49AF83FCF
:10246000FED478E92631F83F44696FF085C9F73F1B
:10247000C05B2041F163F73F000000000000F73F20
:1024800075029A081B9EF63F2063EE5A423EF63FC5
:102490008E75711B0DE0F53F32E6AE25E483F53F06
:1024A000295C8FC2F528F53F55302AA913D0F43F97
:1024B00046B6F3FDD478F43FFAEDEBC03923F43F90
:1024C00073D712F241CFF33FB0726891ED7CF33FC6
:1024D000B1BFEC9E3C2CF33F0612143FC6DCF23F2A
:1024E0001E166A4DF38EF23F8A1F63EE5A42F23F88
:1024F000BADA8AFD65F7F13FAE47E17A14AEF13FF3
:10250000840D4FAF9465F13F1F85EB51B81EF13F2D
:102510000C022B8716D9F03F4D840D4FAF94F03F3E
:10252000E10B93A98251F03FC898BB96900FF03F02
:1025300004560E2DB29DEF3F1F85EB51B81EEF3FA5
:10254000E0BE0E9C33A2EE3F4703780B2428EE3FFB
:1025500072F90FE9B7AFED3F44FAEDEBC039ED3F4B
:10256000DAACFA5C6DC5EC3F166A4DF38E53EC3F66
:1025700017D9CEF753E3EB3FBD5296218E75EB3F53
:102580000AD7A3703D0AEB3F39B4C876BE9FEA3F35
:102590000F9C33A2B437EA3FA835CD3B4ED1E93F7B
:1025A000068195438B6CE93F0AD7A3703D0AE93F4A
:1025B000D3DEE00B93A9E83F7D3F355EBA49E83FA3
:1025C000CEAACFD556ECE73FE3C798BB9690E73F3E
:1025D000D93D7958A835E73F77BE9F1A2FDDE63FF2
:1025E000F697DD938785E63F3A234A7B832FE63FC4
:1025F00024B9FC87F4DBE53F0E4FAF946588E53FD7
:102600009EEFA7C64B37E53F2826000800000020B4
:102610001C000000F0140008442600081C000020E4
:102620000404000000150008000000000000000085
:102630000102030401020304060708090204060854
:042640000000000096
:04000005080000ED02
:00000001FF
